:0400000026EF00F0F7
:100008000182FACF59F0FBCF5AF0F2AC0EEF00F0B4
:1000180010EF00F020EF00F0F2AA15EF00F017EF54
:1000280000F020EF00F0F2A41CEF00F01EEF00F04B
:1000380020EF00F0EFEC08F05AC0FBFF59C0FAFFC0
:080048000192110045EF09F0DF
:10100000000000000000FF181818FF7E8181817E1B
:10101000FF80808080FE919191FE0000000000FF23
:10102000061806FF7F8080807FFF061860FFFF8123
:1010300081663C7E8181817E0001020304050607F2
:0510400008090A000090
:101046000001606B626B616B6051020FD96EDA6AE8
:101056006251380F5B6E5BC0F6FF100EF76E08002C
:10106600F550050DF350010F61255C6E5CC0F6FF6F
:10107600100EF76E0800F550FF0ADF6E602B612B2D
:10108600040E616549EF08F04BEF08F027EF08F012
:1010960062515B6E5C6A010E5B26000E5C225C5040
:1010A60007E10C0E5B5CD8B05BEF08F05DEF08F073
:1010B60064EF08F06051020FD96EDA6AFF0EDF6E38
:1010C600602B622B0B0E62656BEF08F06DEF08F07C
:1010D60026EF08F012004C50D8A474EF08F076EF13
:1010E60008F087EF08F08B824D50D8A47DEF08F00A
:1010F6007FEF08F082EF08F08B8083EF08F08B908B
:10110600010E4C6E95EF08F08B924D2A180E4D6429
:101116008FEF08F091EF08F094EF08F04D6A010E9A
:101126004B6E4C6A4E2A460E4E649CEF08F09EEFBC
:1011360008F09FEF08F04E6A120052EC09F05BECE3
:1011460009F023EC08F0DC0E5B6E100E5C6E68ECAA
:1011560009F081EC09F0F28CF28E4B50D8B4B6EF60
:1011660008F0B8EF08F0BBEF08F04B6A0AEC09F09C
:101176004C50D8A4C1EF08F0C3EF08F0B0EF08F068
:101186004D50020FD96EDA6ADF508A6EB0EF08F062
:1011960026EF00F0D09EF292F18C000E5B6E000EF0
:1011A6005C6E7CEC09F0F090F18A000E5B6E000E2E
:1011B6005C6E77EC09F0F092F188000E5B6E000E23
:1011C6005C6E72EC09F0F094F186000E5B6E000E18
:1011D6005C6E6DEC09F012004A50D76E49C0D6FF1E
:1011E6004F505010D8B4FAEF08F0FCEF08F008EFB3
:1011F60009F002D808EF09F00500FA6E4F50FD6EAF
:101206005050FE6EFF6AFA501200F294120002C0AD
:101216005BF05C6A5C50030FD96EDA6A5C50020FB1
:10122600E16EE26ADFCFE7FF5C2A450E5C641EEFE3
:1012360009F020EF09F00DEF09F05BC048F012004D
:10124600D59CFE0ED76E0C0ED66EFE0E4A6E0C0E9A
:10125600496E060E5B6E130E5C6E68EC09F0F29436
:10126600F28A920ED56E1200896A8A6A8B6AEF0E2E
:10127600926E800E936EF80E946E0F015B6B5A6B36
:10128600F286120000EE02F04D0EEE6AE806FDE16F
:1012960001900192000EF86E0001A0EF08F062ECDA
:1012A60009F037EC09F023EC09F0CDEC08F0120058
:1012B6008B908B928B849490949294941200700EDF
:1012C600D36ED26A9B6A9A6A12005BC04FF05CC00A
:1012D60050F012005BC051F05CC052F012005BC0CF
:1012E60053F05CC054F012005BC055F05CC056F081
:1012F60012005BC057F05CC058F01200F28A120070
:021306001200D3
:020000040030CA
:0E0000001D137F50FF8991FF0FC00FE00F40CE
:00000001FF
