:0400000026EF00F0F7
:100008000182FACF52F0FBCF53F0F2AC0EEF00F0C2
:1000180010EF00F020EF00F0F2AA15EF00F017EF54
:1000280000F020EF00F0F2A41CEF00F01EEF00F04B
:1000380020EF00F0C7EC08F053C0FBFF52C0FAFFF6
:080048000192110004EF09F020
:101000000000000000007F0808087F3E4141413E8B
:101010007F404040407F0909097F00000000007FB9
:101020000204027F7F0101017F7F0408107F7F415E
:1010300041221C3E4141413E0001020304000506DD
:101040000708090A0000566A576A586A5750380F4D
:10105000546E54C0F6FF100EF76E0800F550050DE3
:10106000F350010F5824556E55C0F6FF100EF76E61
:101070005650020FD96EDA6A0800F5CFDFFF562A04
:10108000582A040E586447EF08F049EF08F026EF9D
:1010900008F0572A0C0E576450EF08F052EF08F092
:1010A00025EF08F012004550D8A459EF08F05BEF87
:1010B00008F06CEF08F08B824650D8A462EF08F07D
:1010C00064EF08F067EF08F08B8068EF08F08B9012
:1010D000010E456E78EF08F08B92462A180E466492
:1010E00074EF08F076EF08F077EF08F0466A456A8B
:1010F000472A400E47647FEF08F081EF08F082EF47
:1011000008F0476A120011EC09F01AEC09F023EC20
:1011100008F0A60E546E100E556E27EC09F040EC48
:1011200009F0F28CF28E4550D8A499EF08F09BEFAD
:1011300008F093EF08F04650020FD96EDA6ADF50DC
:101140008A6E93EF08F026EF00F0D09EF292F18CB9
:10115000000E546E000E556E3BEC09F0F090F18AD3
:10116000000E546E000E556E36EC09F0F092F188C8
:10117000000E546E000E556E31EC09F0F094F186BD
:10118000000E546E000E556E2CEC09F01200445007
:10119000D76E43C0D6FF48504910D8B4D2EF08F0FC
:1011A000D4EF08F0E0EF08F002D8E0EF08F0050017
:1011B000FA6E4850FD6E4950FE6EFF6AFA501200FA
:1011C000F2941200D59CFE0ED76E0C0ED66EFE0E5B
:1011D000446E0C0E436E840E546E120E556E27EC48
:1011E00009F0F294F28A920ED56E1200896A8A6A28
:1011F0008B6AEF0E926E800E936EF80E946E0F0156
:101200005B6B5A6BF286120000EE02F0460EEE6A3D
:10121000E806FDE101900192000EF86E000183EFF7
:1012200008F021EC09F0F6EC08F0E2EC08F0A5EC8F
:1012300008F012008B908B928B84949094929494EB
:101240001200700ED36ED26A9B6A9A6A120054C062
:1012500048F055C049F0120054C04AF055C04BF058
:10126000120054C04CF055C04DF0120054C04EF066
:1012700055C04FF0120054C050F055C051F012004C
:06128000F28A12001200C8
:020000040030CA
:0E0000001D137F50FF8991FF0FC00FE00F40CE
:00000001FF
