:0400000026EF00F0F7
:100008000182FACF4DF0FBCF4EF0F2AC0EEF00F0CC
:1000180010EF00F020EF00F0F2AA15EF00F017EF54
:1000280000F020EF00F0F2A41CEF00F01EEF00F04B
:1000380020EF00F0C7EC08F04EC0FBFF4DC0FAFF00
:080048000192110004EF09F020
:101000000000000000007F0808087F3E4141413E8B
:101010007F404040407F0909097F00000000007FB9
:101020000204027F7F0101017F7F0408107F7F415E
:1010300041221C3E4141413E0001020304000506DD
:05104000070809000093
:10104600516A526A536A5250380F4F6E4FC0F6FFBC
:10105600100EF76E0800F550050DF350010F5324DE
:10106600506E50C0F6FF100EF76E5150020FD96E3B
:10107600DA6A0800F5CFDFFF512A532A040E5364BB
:1010860047EF08F049EF08F026EF08F0522A0B0E5A
:10109600526450EF08F052EF08F025EF08F0120006
:1010A6004050D8A459EF08F05BEF08F06CEF08F059
:1010B6008B824150D8A462EF08F064EF08F067EF26
:1010C60008F08B8068EF08F08B90010E406E78EF89
:1010D60008F08B92412A180E416474EF08F076EFFF
:1010E60008F077EF08F0416A406A422A3B0E4264F4
:1010F6007FEF08F081EF08F082EF08F0426A1200F5
:1011060011EC09F01AEC09F023EC08F0A60E4F6E6C
:10111600100E506E27EC09F040EC09F0F28CF28EBE
:101126004050D8A499EF08F09BEF08F093EF08F031
:101136004250020FD96EDA6ADF508A6E93EF08F0DA
:1011460026EF00F0D09EF292F18C000E4F6E000E4C
:10115600506E3BEC09F0F090F18A000E4F6E000ED7
:10116600506E36EC09F0F092F188000E4F6E000ECC
:10117600506E31EC09F0F094F186000E4F6E000EC1
:10118600506E2CEC09F012003F50D76E3EC0D6FFD1
:1011960043504410D8B4D2EF08F0D4EF08F0E0EF93
:1011A60008F002D8E0EF08F00500FA6E4350FD6E35
:1011B6004450FE6EFF6AFA501200F2941200D59C5B
:1011C600FE0ED76E0C0ED66EFE0E3F6E0C0E3E6EEB
:1011D600840E4F6E120E506E27EC09F0F294F28ACE
:1011E600920ED56E1200896A8A6A8B6AEF0E926E2B
:1011F600800E936EF80E946E0F015B6B5A6BF2863F
:10120600120000EE02F0410EEE6AE806FDE10190E2
:101216000192000EF86E000183EF08F021EC09F050
:10122600F6EC08F0E2EC08F0A5EC08F012008B9062
:101236008B928B849490949294941200700ED36E39
:10124600D26A9B6A9A6A12004FC043F050C044F0BB
:1012560012004FC045F050C046F012004FC047F094
:1012660050C048F012004FC049F050C04AF012007A
:101276004FC04BF050C04CF01200F28A1200120020
:020000040030CA
:0E0000001D137F50FF8991FF0FC00FE00F40CE
:00000001FF
