:0400000036EF00F0E7
:100008000182FACF07F0FBCF08F0D9CF09F0DACF99
:100018000AF0F3CF0BF0F4CF0CF0F2AC16EF00F0CF
:1000280018EF00F028EF00F0F2AA1DEF00F01FEF24
:1000380000F028EF00F0F2A424EF00F026EF00F023
:1000480028EF00F03FEC0BF00CC0F4FF0BC0F3FFFF
:100058000AC0DAFF09C0D9FF08C0FBFF07C0FAFFD2
:0800680001921100D9EF0AF02A
:101000000000136E1350D8B408EF08F00AEF08F090
:101010007FEF08F00D50D96EDA6A030EDF6013EF30
:1010200008F015EF08F019EF08F00D50D96EDA6AE4
:10103000DF2A0D50D96EDA6A030EDE18D8A423EF2A
:1010400008F025EF08F09DEF08F00E50D96EDA6A2F
:10105000DF50D8A42EEF08F030EF08F09DEF08F035
:101060000E50D96EDA6A010EDF6E010E356E346AEB
:101070000FBE3FEF08F03DEF08F04AEF08F03C509C
:10108000D8B445EF08F047EF08F04AEF08F03C0607
:101090005DEF08F00F50800A7F0FD8A052EF08F0E4
:1010A00054EF08F05DEF08F0060E3C605AEF08F0D0
:1010B0005CEF08F05DEF08F03C2A3650190DF35054
:1010C000640FD96EDA6ADF50106E3CC011F0010E69
:1010D000126E112A6EEF08F0D8901236112E6CEFB6
:1010E00008F0125010140009D8B479EF08F07BEF23
:1010F00008F09DEF08F0010E346E9DEF08F00D50E2
:10110000D96EDA6ADF50D8B488EF08F08AEF08F0B9
:101110008EEF08F00D50D96EDA6ADF060D50D96EE9
:10112000DA6ADF50D8A497EF08F099EF08F09DEF46
:1011300008F00E50D96EDA6ADF6A1200266A276A52
:10114000246A256A236A7CEC0BF085EC0BF0FF0E19
:101150000E6ECE0E0D6E92EC0BF0FF0E0E6ECE0EDE
:101160000D6E97EC0BF00F015D915D939280928272
:101170007F0E8A6EFBEC0AF07C0E0D6E130E0E6E67
:101180009CEC0BF0B5EC0BF0F28CF28E226A37502F
:10119000D8B4CDEF08F0CFEF08F0DCEF08F0F29E06
:1011A0003750D8B4D6EF08F0D8EF08F0DBEF08F0EE
:1011B0003706010E226EF28E2250D8B4E2EF08F00C
:1011C000E4EF08F0C6EF08F0260E0D6E240E0E6E4A
:1011D000FF0E0F6E80A0EFEF08F0F2EF08F0010EA7
:1011E000F3EF08F0000E01EC08F0270E0D6E250E4F
:1011F0000E6E010E0F6E80A200EF09F003EF09F0F2
:10120000010E04EF09F0000E01EC08F03550D8B4DF
:101210000CEF09F00EEF09F0C6EF08F03450D8A437
:1012200014EF09F016EF09F0C6EF08F0232A270E95
:1012300023641DEF09F01FEF09F0C6EF08F0236AE1
:1012400090EC0AF00009D8B428EF09F02AEF09F071
:10125000C6EF08F0010E346EC6EF08F036EF00F06E
:101260001A6A3AB036EF09F038EF09F03DEF09F0AD
:10127000196A000E186E40EF09F0196AB80E186E60
:10128000D8903A3018183A6E3AC00DF00E6A106ACB
:10129000030E0F6E39EC0AF00D501B6E1B50D8A4D4
:1012A00054EF09F056EF09F061EF09F0020E3B64CC
:1012B0005CEF09F05EEF09F061EF09F03B0673EFB8
:1012C00009F0020E1B18D8A468EF09F06AEF09F0C4
:1012D00073EF09F0040E3B6070EF09F072EF09F054
:1012E00073EF09F03B2A1C6AFF0E3B24136E146A4D
:1012F000FF0E14221C50156E166A1350155C165002
:10130000800A176E1450800A1758D8A08AEF09F087
:101310008CEF09F0A5EF09F01C50136E146A3B50D6
:10132000156E166A010E1526000E16221350155C56
:101330001650800A176E1450800A1758D8B0A3EFC1
:1013400009F0A5EF09F0B3EF09F01CC013F0010E8E
:10135000146E132AAEEF09F0D8901436132EACEFAA
:1013600009F014501A121C2A060E1C64BAEF09F078
:10137000BCEF09F074EF09F01A5012003850D8A4ED
:10138000C4EF09F0C6EF09F023EF0AF03550D8A4F6
:10139000CCEF09F0CEEF09F0EFEF09F0040E3918A9
:1013A000D8B4D5EF09F0D7EF09F0DCEF09F0056A02
:1013B000000E046EEBEF09F03CC002F0010E036E6C
:1013C000022AE5EF09F0D8900336022EE3EF09F088
:1013D0000350046E056A04C006F00FEF0AF03650A1
:1013E000190DF350600F3924D96EDA6ADF50066E9A
:1013F000040E3918D8A4FFEF09F001EF0AF00FEF3F
:101400000AF03CC002F0010E036E022A0AEF0AF055
:10141000D8900336022E08EF0AF003500612065049
:10142000FF0A8A6E8B823950D8A419EF0AF01BEF9D
:101430000AF01EEF0AF08B801FEF0AF08B90010E6E
:10144000386E38EF0AF08B92392A180E39642BEF78
:101450000AF02DEF0AF037EF0AF0396A3728D8B4CE
:1014600034EF0AF036EF0AF037EF0AF0372A386A1D
:101470001200126A0EBE41EF0AF03FEF0AF047EF8A
:101480000AF00D6C0E1ED8B00E2A010E126E10BEA0
:101490004EEF0AF04CEF0AF052EF0AF00F6C101EFC
:1014A000D8B0102A0F501010D8B459EF0AF05BEFE3
:1014B0000AF07FEF0AF0010E116E63EF0AF0D89088
:1014C0000F361036112A10AE68EF0AF06AEF0AF0F4
:1014D0005FEF0AF00F500D5C10500E58D8A073EF5C
:1014E0000AF075EF0AF079EF0AF00F500D5E105018
:1014F0000E5AD89010320F32112E6AEF0AF01250A5
:10150000D8B485EF0AF087EF0AF08BEF0AF00D6C84
:101510000E1ED8B00E2A0DC00DF00EC00EF0120037
:101520003650010A206E3CC01DF0010E1E6E1D2AB1
:101530009CEF0AF0D8901E361D2E9AEF0AF01E502E
:101540001F6E216A3650190DF350610F2124D96E98
:10155000DA6A2050190DF350600F2124E16EE26A1F
:10156000DFCFE7FF212A170E2164B9EF0AF0BBEFA6
:101570000AF0A2EF0AF02050190DF350780FD96E3F
:10158000DA6A30EC09F0DF6E20C036F02050190D19
:10159000F350640FD96EDA6ADF501F140009D8A423
:1015A000D4EF0AF0D7EF0AF0010ED8EF0AF0000EE0
:1015B00012006E0EF66E170EF76E000EF86E090032
:1015C000F5CF3AF00900F5CF3BF00900F5CF3CF03C
:1015D00000EE60F0320EEE6AE806FDE100EE32F059
:1015E000080EEE6AE806FDE101900192000EF86E29
:1015F00000019EEF08F01D6A1D50600FD96EDA6A77
:1016000030EC09F0DF6E1D50600FD96EDA6A1D50A4
:10161000790FE16EE26ADFCFE7FF1D2A180E1D6425
:1016200014EF0BF016EF0BF0FCEF0AF0410E000187
:10163000641764C07DF0366A1200D09EF292F18C7D
:10164000000E0D6E000E0E6EB0EC0BF0F090F18AF5
:10165000000E0D6E000E0E6EABEC0BF0F092F188EA
:10166000000E0D6E000E0E6EA6EC0BF0F094F186DF
:10167000000E0D6E000E0E6EA1EC0BF0120033503A
:10168000D76E32C0D6FF28502910D8B44AEF0BF0DD
:101690004CEF0BF058EF0BF002D858EF0BF00500B1
:1016A000FA6E2850FD6E2950FE6EFF6AFA50120045
:1016B000F2941200D59CFE0ED76E0C0ED66EFE0E66
:1016C000336E0C0E326E720E0D6E170E0E6E9CEC9B
:1016D0000BF0F294F28A920ED56E1200896A8A6A31
:1016E0008B6AEF0E926E800E936EF80E946E0F0161
:1016F0005B6B5A6BF28612008CEC0BF06EEC0BF00D
:101700005AEC0BF01DEC0BF012008B908B928B843B
:101710009490949294941200700ED36ED26A9B6A45
:101720009A6A12000DC032F00EC033F012000E5053
:10173000D76E0DC0D6FF12000DC028F00EC029F0E4
:1017400012000DC02AF00EC02BF012000DC02CF0BC
:101750000EC02DF012000DC02EF00EC02FF01200A2
:101760000DC030F00EC031F01200F28A1200A50355
:011770000375
:02177200120063
:020000040030CA
:0E0000001D137F50FF8991FF0FC00FE00F40CE
:00000001FF
